196            18329094PABLO ANDRES ABRIL            POINCARE                        8460                         5000    CORDOBA                       CAPITAL                                           03                              99                    PABLO ANDRES ABRIL            96            1832909400000000000
196            14920602LINO EDUARDO BAZZOLI          CHEINE  BNO LASALLE             6421                         5000    CORDOBA                       CAPITAL                                           03                              99                    LINO EDUARDO BAZZOLI          96            1492060200000000000
196            20764613BOERIS GUILLERMO              ALBERT BRUCE SABIN RIV. DE VIL   S/N                         5000    CORDOBA                       CAPITAL                                           03                              99                    BOERIS GUILLERMO              96            2076461300000000000
196            17843839HECTOR EDUARDO CARRIZO        PJE DE USO COMUN  LAS PALMAS     310                         5000    CORDOBA                       CAPITAL                                           03                              99                    HECTOR EDUARDO CARRIZO        96            1784383900000000000
196            21754406DIEGO CASAS                   YAHUAR HUACAC QTAS. DE ARGUELL  7256                         5000    CORDOBA                       CAPITAL                                           03                              99                    DIEGO CASAS                   96            2175440600000000000
196            20532683DIEGO EZEQUIEL CORRAL         TOMAS GARZON                    7255                         5000    CORDOBA                       CAPITAL                                           03                              99                    DIEGO EZEQUIEL CORRAL         96            2053268300000000000
196            17384055NESTOR CUETO ECCA             AV. COLON  TORRE 3 9NO B        1153                         5000    CORDOBA                       CAPITAL                                           03                              99                    NESTOR CUETO ECCA             96            1738405500000000000
196            22326764GUSTAVO CUTRI                 LUIS TAMINI                     5625                         5000    CORDOBA                       CAPITAL                                           03                              99                    GUSTAVO CUTRI                 96            2232676400000000000
196            20497081SERGIO ARIEL GARCIA           BUCHARDO                        1156                         5000    CORDOBA                       CAPITAL                                           03                              99                    SERGIO ARIEL GARCIA           96            2049708100000000000
196            20149376ABELARDO ALFREDO GARCIA       JUAN NEPERARGUELLO              6220                         5000    CORDOBA                       CAPITAL                                           03                              99                    ABELARDO ALFREDO GARCIA       96            2014937600000000000
196            22843239PABLO GONZALO GUERCI          LOS ARBOLES                      S/N                         5000    CORDOBA                       CAPITAL                                           03                              99                    PABLO GONZALO GUERCI          96            2284323900000000000
196            22227269SERGIO OMAR LUCERO            EL PRADO                         S/N                         5000    CORDOBA                       CAPITAL                                           03                              99                    SERGIO OMAR LUCERO            96            2222726900000000000
196            17155465JOSE IGNACIO MARTINEZ         VALLE ESCONDIDO  EL ROCIO        S/N                         5000    CORDOBA                       CAPITAL                                           03                              99                    JOSE IGNACIO MARTINEZ         96            1715546500000000000
196            13984165ROBERTO FERNANDO MEIER        OCTAVIO PINTO  VILLA CABRERA    2846                         5000    CORDOBA                       CAPITAL                                           03                              99                    ROBERTO FERNANDO MEIER        96            1398416500000000000
196            20151420RICARDO DANIEL MORO           CHIQUIRAYA                      5246                         5000    CORDOBA                       CAPITAL                                           03                              99                    RICARDO DANIEL MORO           96            2015142000000000000
196            18419031GUSTAVO MANUEL MORONCINI      BARRIO CUATRO HOJAS              S/N                         5000    CORDOBA                       CAPITAL                                           03                              99                    GUSTAVO MANUEL MORONCINI      96            1841903100000000000
196            25953701GUSTAVO MARCELO MURUA         AZCUENAGA  SALDAN                108                         5000    CORDOBA                       CAPITAL                                           03                              99                    GUSTAVO MARCELO MURUA         96            2595370100000000000
196            23736557VICTOR MUSOLINO               AV. BARILOCHE                    329                         5000    CORDOBA                       CAPITAL                                           03                              99                    VICTOR MUSOLINO               96            2373655700000000000
196            18220245RUBEN ALBERTO NUNEZ           LA ESTANZUELA                    S/N                         5000    CORDOBA                       CAPITAL                                           03                              99                    RUBEN ALBERTO NUNEZ           96            1822024500000000000
196            17032878CARLOS JULIO QUINTEROS        AV. EVA PERON                    462                         5000    CORDOBA                       CAPITAL                                           03                              99                    CARLOS JULIO QUINTEROS        96            1703287800000000000
196            24368307RANCIC RODRIGO GABRIEL        RODRIGUEZ PENA                  2102                         5000    CORDOBA                       CAPITAL                                           03                              99                    RANCIC RODRIGO GABRIEL        96            2436830700000000000
196            17104791JUAN JOSE REMEDI              LOS ARBOLES MANZANA              S/N                         5000    CORDOBA                       CAPITAL                                           03                              99                    JUAN JOSE REMEDI              96            1710479100000000000
196            20439746MARCELO ALEJANDRO REYNA       IGUALDAD  QUEBRADA DE LAS ROSA  5808                         5000    CORDOBA                       CAPITAL                                           03                              99                    MARCELO ALEJANDRO REYNA       96            2043974600000000000
196            24522346FERNANDO OSCAR SALAS          REMEDIOS DE ESCALADA  CALERA C   336                         5000    CORDOBA                       CAPITAL                                           03                              99                    FERNANDO OSCAR SALAS          96            2452234600000000000
196            21625125GUILLERMO PEDRO SIBILLA       VALLE ESCONDIDO  LAS ACACIAS     S/N                         5000    CORDOBA                       CAPITAL                                           03                              99                    GUILLERMO PEDRO SIBILLA       96            2162512500000000000
196            18175040RICARDO PEDRO SOCCOL          GERMAN BUSCH  QUINTAS ARGUELLO  7227                         5000    CORDOBA                       CAPITAL                                           03                              99                    RICARDO PEDRO SOCCOL          96            1817504000000000000
196            23736001FERNANDO CARLOS TABORDA       JUAN SARACHO  GRANJA DE FUNES   5098                         5000    CORDOBA                       CAPITAL                                           03                              99                    FERNANDO CARLOS TABORDA       96            2373600100000000000
196            18408263ZANNIER JUAN CARLOS           TABAQUILLO  LA HERRADURA        1071                         5000    CORDOBA                       CAPITAL                                           03                              99                    ZANNIER JUAN CARLOS           96            1840826300000000000
196            14579072WALTER ZANONI                 VILLEGAS SAN JOSE               6868                         5000    CORDOBA                       CAPITAL                                           03                              99                    WALTER ZANONI                 96            1457907200000000000
196            17094983OSVALDO ALBERTO AGUILERO      AV. LOS PARAISOS                 372                         5000    CORDOBA                       CAPITAL                                           03                              99                    OSVALDO ALBERTO AGUILERO      96            1709498300000000000
196            23824551CLAUDIO CARLOS ARRIETA        CIUDAD  DE TAMPA                2538                         5000    CORDOBA                       CAPITAL                                           03                              99                    CLAUDIO CARLOS ARRIETA        96            2382455100000000000
196            21392299WALTER ALEJANDRO AUREA        MIGUEL VERA                     8041                         5000    CORDOBA                       CAPITAL                                           03                              99                    WALTER ALEJANDRO AUREA        96            2139229900000000000
196            25267383JORGE ALEJANDRO BARRIONUEVO   DE LOS TOCANOS                  6048                         5000    CORDOBA                       CAPITAL                                           03                              99                    JORGE ALEJANDRO BARRIONUEVO   96            2526738300000000000
196            25755179IGNACIO CACERES               JARDIN MEDITERRANEO              S/N                         5000    CORDOBA                       CAPITAL                                           03                              99                    IGNACIO CACERES               96            2575517900000000000
196            26181711LEANDRO GABRIEL CAPARROZ      LOS AROMOS                       643                         5000    CORDOBA                       CAPITAL                                           03                              99                    LEANDRO GABRIEL CAPARROZ      96            2618171100000000000
196            22776262LUIS ALEJANDRO CARLESSO       PUERTO RICO                     2079                         5000    CORDOBA                       CAPITAL                                           03                              99                    LUIS ALEJANDRO CARLESSO       96            2277626200000000000
196            24675628ROMAN ALEJANDRO CHAILE        JUAN GREGORIO POSSE             2024                         5000    CORDOBA                       CAPITAL                                           03                              99                    ROMAN ALEJANDRO CHAILE        96            2467562800000000000
196            16508932JOSE CHIARO                   MARTIN TISSERA                   702                         5000    CORDOBA                       CAPITAL                                           03                              99                    JOSE CHIARO                   96            1650893200000000000
196            16741185JOSE LUIZ CORDOBA             TERCILIO GAMBINO                 139                         5000    CORDOBA                       CAPITAL                                           03                              99                    JOSE LUIZ CORDOBA             96            1674118500000000000
196            18388149FEDERICO EDUARDO GIOVANINI    RUFINO CUERVO                   1462                         5000    CORDOBA                       CAPITAL                                           03                              99                    FEDERICO EDUARDO GIOVANINI    96            1838814900000000000
196            23459978MARIANO ESTEBAN FREDES        ALTO ALEGRE                      S/N                         5000    CORDOBA                       CAPITAL                                           03                              99                    MARIANO ESTEBAN FREDES        96            2345997800000000000
196            27672852NICOLAS GABRIEL FRIGOLA LALLANOLEGARIO CORREA  ALTO ALBERDI    734                         5000    CORDOBA                       CAPITAL                                           03                              99                    NICOLAS GABRIEL FRIGOLA LALLAN96            2767285200000000000
196            18013741LUIS GRASSI                   BENITO CARRASCO                 5819                         5000    CORDOBA                       CAPITAL                                           03                              99                    LUIS GRASSI                   96            1801374100000000000
196            17027992ROBERTO GRASSO                RUTA 9 NORTE                     725                         5000    CORDOBA                       CAPITAL                                           03                              99                    ROBERTO GRASSO                96            1702799200000000000
196            17841327GABRIEL ALEJANDRO JAIMEZ      A. FRESINEL  VILLA BELGRANO     5879                         5000    CORDOBA                       CAPITAL                                           03                              99                    GABRIEL ALEJANDRO JAIMEZ      96            1784132700000000000
196            18014395JUAREZ CARLOS ALBERTO         AVENIDA CENTRAL                 2368                         5000    CORDOBA                       CAPITAL                                           03                              99                    JUAREZ CARLOS ALBERTO         96            1801439500000000000
196            20324892SILVIO MARCELO LAZOS          FRANCISCO SEBASTIANI            6972                         5000    CORDOBA                       CAPITAL                                           03                              99                    SILVIO MARCELO LAZOS          96            2032489200000000000
196            18388083JAVIER ALEJANDRO MAGGIOLI     SAMUEL MORSE                    1998                         5000    CORDOBA                       CAPITAL                                           03                              99                    JAVIER ALEJANDRO MAGGIOLI     96            1838808300000000000
196            21320271MIGUEL MARTIARENA             JERENOMO CARDONA                5667                         5000    CORDOBA                       CAPITAL                                           03                              99                    MIGUEL MARTIARENA             96            2132027100000000000
196            12821289VICTOR MARTINA                HERIBERTO MARTINEZ              5712                         5000    CORDOBA                       CAPITAL                                           03                              99                    VICTOR MARTINA                96            1282128900000000000
196            20997431ENRIQUE MONTENEGRO            PUERTO DE PALOS                 1026                         5000    CORDOBA                       CAPITAL                                           03                              99                    ENRIQUE MONTENEGRO            96            2099743100000000000
196            23451309SERGIO MONTEROS               JUAN CORREAS                    6986                         5000    CORDOBA                       CAPITAL                                           03                              99                    SERGIO MONTEROS               96            2345130900000000000
196            20381100RUBEN MOR                     EL PRADO                         S/N                         5000    CORDOBA                       CAPITAL                                           03                              99                    RUBEN MOR                     96            2038110000000000000
196            25891310GONZALO PERALTA               AV. CHACAL                      9786                         5000    CORDOBA                       CAPITAL                                           03                              99                    GONZALO PERALTA               96            2589131000000000000
196            24473313CESAR ARIEL PERALTA           TANDIL VILLA REVOL              1436                         5000    CORDOBA                       CAPITAL                                           03                              99                    CESAR ARIEL PERALTA           96            2447331300000000000
196            11865579HUGO GUILLERMO PICCIRILLI     ALONSO DE UBEDA                  431                         5000    CORDOBA                       CAPITAL                                           03                              99                    HUGO GUILLERMO PICCIRILLI     96            1186557900000000000
196            13961921VICENTE FABIAN PISANO          ALTOS DEL CHATEU                S/N                         5000    CORDOBA                       CAPITAL                                           03                              99                    VICENTE FABIAN PISANO         96            1396192100000000000
196            20786192MARCELO ALBERTO PONCE         MARIA CRISTINA                   628                         5000    CORDOBA                       CAPITAL                                           03                              99                    MARCELO ALBERTO PONCE         96            2078619200000000000
196            14155322FELIPE EDUARDO RODRIGUEZ      TAMBO NUEVO  SAN MARTIN          185                         5000    CORDOBA                       CAPITAL                                           03                              99                    FELIPE EDUARDO RODRIGUEZ      96            1415532200000000000
196            16556170FABIAN ANTONIO ROJAS          RIO DULCE S/N                    S/N                         5000    CORDOBA                       CAPITAL                                           03                              99                    FABIAN ANTONIO ROJAS          96            1655617000000000000
196            14476140EDUARDO GUILLERMO ROSSO       TUCAN                           6201                         5000    CORDOBA                       CAPITAL                                           03                              99                    EDUARDO GUILLERMO ROSSO       96            1447614000000000000
196            25141550MARCOS DAVID SALA             AV. GRAL PAZ                     S/N                         5000    CORDOBA                       CAPITAL                                           03                              99                    MARCOS DAVID SALA             96            2514155000000000000
196            21022720VERA OCAMPO JAVIER ALFREDO    LA ESTANZUELA                    S/N                         5000    CORDOBA                       CAPITAL                                           03                              99                    VERA OCAMPO JAVIER ALFREDO    96            2102272000000000000
196            23231997EDGAR ARIEL VIVAS             CONSTANCIO UIGIL  LICEO          867                         5000    CORDOBA                       CAPITAL                                           03                              99                    EDGAR ARIEL VIVAS             96            2323199700000000000
196            22161395BERNARDO FABIAN ZULOAGA       PADRE LOZANO                     858                         5000    CORDOBA                       CAPITAL                                           03                              99                    BERNARDO FABIAN ZULOAGA       96            2216139500000000000
196            22880764LEANDRA MENGO                 MANUEL PIZARRO                  2507                         5000    CORDOBA                       CAPITAL                                           03                              99                    LEANDRA MENGO                 96            2288076400000000000
196            24486074MARTIN DE IPOLA               RAMON Y CAJAL                   5925                         5000    CORDOBA                       CAPITAL                                           03                              99                    MARTIN DE IPOLA               96            2448607400000000000
196            20184612CARLOS ENRIQUE DIAZ ASTUDILLO GRANADA                          526                         5000    CORDOBA                       CAPITAL                                           03                              99                    CARLOS ENRIQUE DIAZ ASTUDILLO 96            2018461200000000000
196            20621691EMILIO FEDERICO ANTUNEZ       JOSE MARIA PIZARRO               985                         5000    CORDOBA                       CAPITAL                                           03                              99                    EMILIO FEDERICO ANTUNEZ       96            2062169100000000000
196            22564253LUNA MAURICIO                 LUIS WARCALDE                   8873                         5000    CORDOBA                       CAPITAL                                           03                              99                    LUNA MAURICIO                 96            2256425300000000000
196            20784737CHACON EUGENIO LEANDRO        ALBERTO NICASIO                 7082                         5000    CORDOBA                       CAPITAL                                           03                              99                    CHACON EUGENIO LEANDRO        96            2078473700000000000
196            23825409DIEGO MATIAS BOLDINI          SIERRA DE MACHA                  552                         5000    CORDOBA                       CAPITAL                                           03                              99                    DIEGO MATIAS BOLDINI          96            2382540900000000000
196            25080548ANDRES GELFO                  EMILIO LAMARCA                  4027                         5000    CORDOBA                       CAPITAL                                           03                              99                    ANDRES GELFO                  96            2508054800000000000
196            17626891MARCELO LUIS GIUNCHIGLIA      RAUL SESSA                      3691                         5000    CORDOBA                       CAPITAL                                           03                              99                    MARCELO LUIS GIUNCHIGLIA      96            1762689100000000000
196            12257485SERGIO ANTONIO BUSTOS         VIEYTES                         1680                         5000    CORDOBA                       CAPITAL                                           03                              99                    SERGIO ANTONIO BUSTOS         96            1225748500000000000
196            21747027HECTOR ALFREDO ACOSTA         AZOPARDO                         425                         5000    CORDOBA                       CAPITAL                                           03                              99                    HECTOR ALFREDO ACOSTA         96            2174702700000000000
196            21755348HUGO GUILLERMO LUDUENA        ORTIZ DE OCAMPO                 4513                         5000    CORDOBA                       CAPITAL                                           03                              99                    HUGO GUILLERMO LUDUENA        96            2175534800000000000
196            20078489HUMBERTO ODETTI               LOS FRESNOS                      S/N                         5000    CORDOBA                       CAPITAL                                           03                              99                    HUMBERTO ODETTI               96            2007848900000000000
196            11562458NESTOR OSVALDO CEBALLOS       LA CESIRA                       9209                         5000    CORDOBA                       CAPITAL                                           03                              99                    NESTOR OSVALDO CEBALLOS       96            1156245800000000000
196            21629822GUSTAVO DANIEL CELI           AGUSTIN ROQUE ARIAS              185                         5000    CORDOBA                       CAPITAL                                           03                              99                    GUSTAVO DANIEL CELI           96            2162982200000000000
196            24991329JOSE LUIS MIR ANTONELLO       VIEYTES                         1356                         5000    CORDOBA                       CAPITAL                                           03                              99                    JOSE LUIS MIR ANTONELLO       96            2499132900000000000
196            17000905ALFREDO ROQUE TACHINI         DELA PAOLERA                    6323                         5000    CORDOBA                       CAPITAL                                           03                              99                    ALFREDO ROQUE TACHINI         96            1700090500000000000
296            21784508MARIA FERNANDA BARTOLOMEI     NUEVO URCA                       S/N                         5000    CORDOBA                       CAPITAL                                           03MARIA FERNANDA BARTOLOMEI     96            21784508                              99                    00000000000
196            13684149BORIS ORISBER                 OLIVARES                        4962                         5000    CORDOBA                       CAPITAL                                           03                              99                    BORIS ORISBER                 96            1368414900000000000
196            20778334MIGUEL JUAN DALLAS            JOSE MACHAIN                     444                         5000    CORDOBA                       CAPITAL                                           03                              99                    MIGUEL JUAN DALLAS            96            2077833400000000000
196            23763684BUTELER MARIA                 FORMOSA                         6032                         5000    CORDOBA                       CAPITAL                                           03                              99                    BUTELER MARIA                 96            2376368400000000000
196            21000082DANIEL OJEDA                  LA PAMPA                         336                         5000    CORDOBA                       CAPITAL                                           03                              99                    DANIEL OJEDA                  96            2100008200000000000
196            26904917LUCIANO ARGANARAZ             JOSE VARELA BERRO               3643                         5000    CORDOBA                       CAPITAL                                           03                              99                    LUCIANO ARGANARAZ             96            2690491700000000000
196            18063086GUILLERMO ALBERTO ZEZULAR     ECHEVERRIA                       598                         5000    CORDOBA                       CAPITAL                                           03                              99                    GUILLERMO ALBERTO ZEZULAR     96            1806308600000000000
196            18063086GUILLERMO ALBERTO ZEZULAR     ECHEVERRIA                       598                         5000    CORDOBA                       CAPITAL                                           03                              99                    GUILLERMO ALBERTO ZEZULAR     96            1806308600000000000
196            17842602ALBERTO JOSE PASCAZZI         ESTANCIA LA PRIMAVERA            260                         5000    CORDOBA                       CAPITAL                                           03                              99                    ALBERTO JOSE PASCAZZI         96            1784260200000000000
196            16500808TORRES ROGELIO NICOLAS        AV. CAPTDEVILA                   S/N                         5000    CORDOBA                       CAPITAL                                           03                              99                    TORRES ROGELIO NICOLAS        96            1650080800000000000
196            16158329MIGUEL ANGEL RUIZ             PEDRO GOYENA                    1366                         5000    CORDOBA                       CAPITAL                                           03                              99                    MIGUEL ANGEL RUIZ             96            1615832900000000000
196            17158327LUIS ALBERTO RODRIGUEZ        LOS CIELOS                       S/N                         5000    CORDOBA                       CAPITAL                                           03                              99                    LUIS ALBERTO RODRIGUEZ        96            1715832700000000000
196            18402724SERGIO DANIEL RIBBAUDO        T. GAMBINO                       588                         5000    CORDOBA                       CAPITAL                                           03                              99                    SERGIO DANIEL RIBBAUDO        96            1840272400000000000
196            23078143MARTIN LUDENA                 LA HABANA                        307                         5000    CORDOBA                       CAPITAL                                           03                              99                    MARTIN LUDENA                 96            2307814300000000000
296            26880732DANIELA LEONILDA RAMIREZ      AV. DOMINGO JUAN PERON            28                         5000    CORDOBA                       CAPITAL                                           03DANIELA LEONILDA RAMIREZ      96            26880732                              99                    00000000000
196            17716966JORGE ALBERTO BRIOLOTTI       AUQUINCO                        8035                         5000    CORDOBA                       CAPITAL                                           03                              99                    JORGE ALBERTO BRIOLOTTI       96            1771696600000000000
196            17949240CARLOS ANTONIO VALDEZ         CALANDRIA                        S/N                         5000    CORDOBA                       CAPITAL                                           03                              99                    CARLOS ANTONIO VALDEZ         96            1794924000000000000
196            20997294ACEVEDO JORGE ALBERTO         AV. LOS FUNDADORES               146                         5000    CORDOBA                       CAPITAL                                           03                              99                    ACEVEDO JORGE ALBERTO         96            2099729400000000000
196            14365593AGOSTI CASAS CLAUDIO MARTIN   BETANIA                         3151                         5000    CORDOBA                       CAPITAL                                           03                              99                    AGOSTI CASAS CLAUDIO MARTIN   96            1436559300000000000
196            29029906AGUERO JUAN SEBASTIAN         VICENTE BALBASTO                2935                         5000    CORDOBA                       CAPITAL                                           03                              99                    AGUERO JUAN SEBASTIAN         96            2902990600000000000
196            12873329AGUIRRE SERGIO ROBERTO        LA FALDA                          50                         5000    CORDOBA                       CAPITAL                                           03                              99                    AGUIRRE SERGIO ROBERTO        96            1287332900000000000
196            18017151ANTONEL ALEJANDRO             URIEN                           1419                         5000    CORDOBA                       CAPITAL                                           03                              99                    ANTONEL ALEJANDRO             96            1801715100000000000
196            21697180ANZOLINI HECTOR CRISTIAN      VENTA Y MEDIA                   5138                         5000    CORDOBA                       CAPITAL                                           03                              99                    ANZOLINI HECTOR CRISTIAN      96            2169718000000000000
196            18067720ARADAS ALFONZO                BVAR. ORONO                      795                         5000    CORDOBA                       CAPITAL                                           03                              99                    ARADAS ALFONZO                96            1806772000000000000
196            25442781ASSI ALBERTO ABRAHAM          ESTADOS UNIDOS                  1320                         5000    CORDOBA                       CAPITAL                                           03                              99                    ASSI ALBERTO ABRAHAM          96            2544278100000000000
196            16783210BARAFANI OSCAR DANIEL         PJE. JUAN THOMES                1216                         5000    CORDOBA                       CAPITAL                                           03                              99                    BARAFANI OSCAR DANIEL         96            1678321000000000000
196            21396964BARRIGA WALTER CARLOS         FRAGUEIRO                       2460                         5000    CORDOBA                       CAPITAL                                           03                              99                    BARRIGA WALTER CARLOS         96            2139696400000000000
196            22101698BECHER NESTOR FABIAN          LOS LAPACHOS                     S/N                         5000    CORDOBA                       CAPITAL                                           03                              99                    BECHER NESTOR FABIAN          96            2210169800000000000
196            14893862BENETTI EDUARDO ANTONIO       NEWTON                          5960                         5000    CORDOBA                       CAPITAL                                           03                              99                    BENETTI EDUARDO ANTONIO       96            1489386200000000000
196            23195552BERRETA FERNANDO JOSE         JURAMENTO                       2574                         5000    CORDOBA                       CAPITAL                                           03                              99                    BERRETA FERNANDO JOSE         96            2319555200000000000
196            28270555BRACAMONTE CARLOS EDUARDO     PEDRO INCHAUSPE                   28                         5000    CORDOBA                       CAPITAL                                           03                              99                    BRACAMONTE CARLOS EDUARDO     96            2827055500000000000
196            23823889BUFFAZ LUCIO MATIAS           EL BOSQUE                        S/N                         5000    CORDOBA                       CAPITAL                                           03                              99                    BUFFAZ LUCIO MATIAS           96            2382388900000000000
196            14475931CABALLE OSCAR MAXIMO          HAMBURGO                        2067                         5000    CORDOBA                       CAPITAL                                           03                              99                    CABALLE OSCAR MAXIMO          96            1447593100000000000
196            16243933CARDENAS ALEJANDRO FEDERICO   AV. AVELLANEDA                  2058                         5000    CORDOBA                       CAPITAL                                           03                              99                    CARDENAS ALEJANDRO FEDERICO   96            1624393300000000000
196            27695231CASTRO DIEGO PATRICIO         FRANCISCO MIRANDA                836                         5000    CORDOBA                       CAPITAL                                           03                              99                    CASTRO DIEGO PATRICIO         96            2769523100000000000
196            21900430CAVAZZA JOSE LUIS             ALBERTO WILLIAMS                3170                         5000    CORDOBA                       CAPITAL                                           03                              99                    CAVAZZA JOSE LUIS             96            2190043000000000000
196            21966787CERUTTI SILVIO MARIO          JOSE MACHAIN                     500                         5000    CORDOBA                       CAPITAL                                           03                              99                    CERUTTI SILVIO MARIO          96            2196678700000000000
196            17155460CETTI PABLO ENRIQUE           AV. OCTAVIO PINTO               2697                         5000    CORDOBA                       CAPITAL                                           03                              99                    CETTI PABLO ENRIQUE           96            1715546000000000000
196            14969815CLEMENZI RAUL ALBERTO         PEDRO DE ONATE                    76                         5000    CORDOBA                       CAPITAL                                           03                              99                    CLEMENZI RAUL ALBERTO         96            1496981500000000000
196            11972578CUADRADO LUIS EDUARDO         BVAR. PINEYRO                    166                         5000    CORDOBA                       CAPITAL                                           03                              99                    CUADRADO LUIS EDUARDO         96            1197257800000000000
196            17473066CUASSOLO IVAN ANTONIO         BATTER PLANA                    2520                         5000    CORDOBA                       CAPITAL                                           03                              99                    CUASSOLO IVAN ANTONIO         96            1747306600000000000
196            24385269DALBO FERNANDO GABRIEL        CROACIA                         3154                         5000    CORDOBA                       CAPITAL                                           03                              99                    DALBO FERNANDO GABRIEL        96            2438526900000000000
196            43231358DAVALLE HORACIO JUAN          DIAZ DE SOLIS                    441                         5000    CORDOBA                       CAPITAL                                           03                              99                    DAVALLE HORACIO JUAN          96            4323135800000000000
196            23057635DELL'AQUA NESTOR ADRIAN       BROWN                             67                         5000    CORDOBA                       CAPITAL                                           03                              99                    DELL'AQUA NESTOR ADRIAN       96            2305763500000000000
196            17382461DELPRATO MARTIN HORACIO       GILARDO GILARDI                 1705                         5000    CORDOBA                       CAPITAL                                           03                              99                    DELPRATO MARTIN HORACIO       96            1738246100000000000
196            25045177DIAZ ENZO DARIO               LA TABLADA                      3251                         5000    CORDOBA                       CAPITAL                                           03                              99                    DIAZ ENZO DARIO               96            2504517700000000000
196            17067519DOMINAZ DANIEL                LAS LIEBRES                      221                         5000    CORDOBA                       CAPITAL                                           03                              99                    DOMINAZ DANIEL                96            1706751900000000000
196            18089735DONALISIO JOSE LUIS           CIUDAD DEL BARCO                3238                         5000    CORDOBA                       CAPITAL                                           03                              99                    DONALISIO JOSE LUIS           96            1808973500000000000
196            18127895DUBOWEZ ALEJANDRO NICOLAS     CURUCHET                        2429                         5000    CORDOBA                       CAPITAL                                           03                              99                    DUBOWEZ ALEJANDRO NICOLAS     96            1812789500000000000
196            20532652FARIAS MARCELO MARTIN         ANTUCUIA                        9995                         5000    CORDOBA                       CAPITAL                                           03                              99                    FARIAS MARCELO MARTIN         96            2053265200000000000
196            20622942FERRARIO GUSTAVO RODOLFO      M. Y CONRADO                    7149                         5000    CORDOBA                       CAPITAL                                           03                              99                    FERRARIO GUSTAVO RODOLFO      96            2062294200000000000
196            22223285FERREYRA RAFAEL GUSTAVO       TUCUMAN                         2749                         5000    CORDOBA                       CAPITAL                                           03                              99                    FERREYRA RAFAEL GUSTAVO       96            2222328500000000000
196            17053717FIORIO GUSTAVO ALBERTO        URIBURU                          369                         5000    CORDOBA                       CAPITAL                                           03                              99                    FIORIO GUSTAVO ALBERTO        96            1705371700000000000
196            17438553FREGONESE SANTIAGO RAUL       ALMARAZ                         8360                         5000    CORDOBA                       CAPITAL                                           03                              99                    FREGONESE SANTIAGO RAUL       96            1743855300000000000
196            14839553FREYTES HUGO ALBERTO          CHAMPAQUI                       3074                         5000    CORDOBA                       CAPITAL                                           03                              99                    FREYTES HUGO ALBERTO          96            1483955300000000000
196            22207614GAITAN FABIO                  P. ARDIZZONE                    6881                         5000    CORDOBA                       CAPITAL                                           03                              99                    GAITAN FABIO                  96            2220761400000000000
196            11154785GARCIA PINASCO FERNANDO RODOLFOFICIALES                        S/N                         5000    CORDOBA                       CAPITAL                                           03                              99                    GARCIA PINASCO FERNANDO RODOLF96            1115478500000000000
196            19984520GARCIA RAUL CESAREO           CORNELIO SAAVEDRA                146                         5000    CORDOBA                       CAPITAL                                           03                              99                    GARCIA RAUL CESAREO           96            1998452000000000000
196            20421331GARCIA GONZALO FRANCISCO      MANUEL CARDONOSA                4941                         5000    CORDOBA                       CAPITAL                                           03                              99                    GARCIA GONZALO FRANCISCO      96            2042133100000000000
196            14290381GARCIA DANIEL EMILIO          DIAGUITAS                       2460                         5000    CORDOBA                       CAPITAL                                           03                              99                    GARCIA DANIEL EMILIO          96            1429038100000000000
196            20741092GASION GANDINI FRANCISCO AUGUSSANTA CRUZ                      1010                         5000    CORDOBA                       CAPITAL                                           03                              99                    GASION GANDINI FRANCISCO AUGUS96            2074109200000000000
196            13535260GELFO ATILIO ALFREDO          NACIONES UNIDAS                  625                         5000    CORDOBA                       CAPITAL                                           03                              99                    GELFO ATILIO ALFREDO          96            1353526000000000000
196            22792908GHIONE ALEJANDRO GABRIEL      FRANCISCO MORAMILLAN            7139                         5000    CORDOBA                       CAPITAL                                           03                              99                    GHIONE ALEJANDRO GABRIEL      96            2279290800000000000
196            23407820GILARDINI MARCO ALEJANDRO     BROWN                            767                         5000    CORDOBA                       CAPITAL                                           03                              99                    GILARDINI MARCO ALEJANDRO     96            2340782000000000000
196            25759442GIMENEZ AIMAR DIEGO GERMAN    LAS PLAYAS                      1717                         5000    CORDOBA                       CAPITAL                                           03                              99                    GIMENEZ AIMAR DIEGO GERMAN    96            2575944200000000000
196            27323135GINGINS OCTAVIO LUIS          MILAN                             81                         5000    CORDOBA                       CAPITAL                                           03                              99                    GINGINS OCTAVIO LUIS          96            2732313500000000000
196            17534329GOMEZ ALEJANDRO GABRIEL       JUAN OCA BALDA                  1007                         5000    CORDOBA                       CAPITAL                                           03                              99                    GOMEZ ALEJANDRO GABRIEL       96            1753432900000000000
196            18511880GONZALEZ HECTOR ADRIAN        DEAN FUNES                      2515                         5000    CORDOBA                       CAPITAL                                           03                              99                    GONZALEZ HECTOR ADRIAN        96            1851188000000000000
196            14532923GUTIERREZ JOSE OSVALDO        AV. RANCAGUA                    3760                         5000    CORDOBA                       CAPITAL                                           03                              99                    GUTIERREZ JOSE OSVALDO        96            1453292300000000000
196            24368891GUZMAN MAURO JOSE             RAMON DE CHAVEZ                  694                         5000    CORDOBA                       CAPITAL                                           03                              99                    GUZMAN MAURO JOSE             96            2436889100000000000
196            23660883HAYMAL FERNANDO DAVID         LEON I                          1032                         5000    CORDOBA                       CAPITAL                                           03                              99                    HAYMAL FERNANDO DAVID         96            2366088300000000000
196            11747230HENDERSON DIEGO ALBERTO       MANUEL DE FALLA                 7335                         5000    CORDOBA                       CAPITAL                                           03                              99                    HENDERSON DIEGO ALBERTO       96            1174723000000000000
196            30329279LEDESMA MARIA JOSE            PICHUIN                         5455                         5000    CORDOBA                       CAPITAL                                           03                              99                    LEDESMA MARIA JOSE            96            3032927900000000000
196            24463307LEDESMA HERNAN                MARTIN Y PINAR                    31                         5000    CORDOBA                       CAPITAL                                           03                              99                    LEDESMA HERNAN                96            2446330700000000000
196            17629685LIMA GONZALO HORACIO          ENTRE RIOS                      2026                         5000    CORDOBA                       CAPITAL                                           03                              99                    LIMA GONZALO HORACIO          96            1762968500000000000
196            21392267LOPEZ ALEJANDRO ANTONIO       MELCHOR RAMIREZ                  580                         5000    CORDOBA                       CAPITAL                                           03                              99                    LOPEZ ALEJANDRO ANTONIO       96            2139226700000000000
196            23395002LOPEZ MIGUEL ANGEL            VICENTE DUPUY                   3015                         5000    CORDOBA                       CAPITAL                                           03                              99                    LOPEZ MIGUEL ANGEL            96            2339500200000000000
196            23459804LOZA DENARDI ADRIAN ALBERTO   VILLA LAS PALMAS                 S/N                         5000    CORDOBA                       CAPITAL                                           03                              99                    LOZA DENARDI ADRIAN ALBERTO   96            2345980400000000000
196            17531665LUCERO ROBERTO MARIO          SUCRE                            962                         5000    CORDOBA                       CAPITAL                                           03                              99                    LUCERO ROBERTO MARIO          96            1753166500000000000
196            18055907LUSSANA CARLOS LUIS           JARDIN CLARET                    S/N                         5000    CORDOBA                       CAPITAL                                           03                              99                    LUSSANA CARLOS LUIS           96            1805590700000000000
196            20197410MAGALDI MIGUEL ANGEL          AV. OLMOS                        187                         5000    CORDOBA                       CAPITAL                                           03                              99                    MAGALDI MIGUEL ANGEL          96            2019741000000000000
196            20865857MARCON PABLO GABRIEL          LAVALLEJA                       1542                         5000    CORDOBA                       CAPITAL                                           03                              99                    MARCON PABLO GABRIEL          96            2086585700000000000
196            21398302MARE FABIAN EDGARDO           JOSE VARELA BERRO               4335                         5000    CORDOBA                       CAPITAL                                           03                              99                    MARE FABIAN EDGARDO           96            2139830200000000000
196            20239083MARGARIA CARLOS NORBERTO ANDRETUCUMAN                         2478                         5000    CORDOBA                       CAPITAL                                           03                              99                    MARGARIA CARLOS NORBERTO ANDRE96            2023908300000000000
196            18329476MARTINS PABLO FABIAN          DEL CAMPILLO                    2030                         5000    CORDOBA                       CAPITAL                                           03                              99                    MARTINS PABLO FABIAN          96            1832947600000000000
196            22028868MEJIA GUSTAVO JULIAN          AV. PIEDRA BUENA                 510                         5000    CORDOBA                       CAPITAL                                           03                              99                    MEJIA GUSTAVO JULIAN          96            2202886800000000000
196            20649186MICHELI GUILLERMO ALEJANDRO   JOSE ORZALI                     6865                         5000    CORDOBA                       CAPITAL                                           03                              99                    MICHELI GUILLERMO ALEJANDRO   96            2064918600000000000
196            17858321MILANESIO ADRIAN JOSE         BUNSON                          5735                         5000    CORDOBA                       CAPITAL                                           03                              99                    MILANESIO ADRIAN JOSE         96            1785832100000000000
196            13984623MONDELLO RUBEN FEDERICO       CARLOS ROQUE                    3468                         5000    CORDOBA                       CAPITAL                                           03                              99                    MONDELLO RUBEN FEDERICO       96            1398462300000000000
196            20268136MORA LEONARDO MARIO           GARSON                           450                         5000    CORDOBA                       CAPITAL                                           03                              99                    MORA LEONARDO MARIO           96            2026813600000000000
196            22274820MORANDI DIEGO OSCAR           SANTA ANA                       6592                         5000    CORDOBA                       CAPITAL                                           03                              99                    MORANDI DIEGO OSCAR           96            2227482000000000000
196            14891834MORANDINI GERARDO ANDRES      AV. COLON                         64                         5000    CORDOBA                       CAPITAL                                           03                              99                    MORANDINI GERARDO ANDRES      96            1489183400000000000
196            25918709MORENO CLAUDIO ANDRES         CANGALLO                        2673                         5000    CORDOBA                       CAPITAL                                           03                              99                    MORENO CLAUDIO ANDRES         96            2591870900000000000
196            24463888MUNOZ GERMAN EDUARDO          ENRIQUE FLIESS                  1220                         5000    CORDOBA                       CAPITAL                                           03                              99                    MUNOZ GERMAN EDUARDO          96            2446388800000000000
196            22597419MURUA MAURICIO EDUARDO        CABO 1NO OSVALDO BRIZUELA        118                         5000    CORDOBA                       CAPITAL                                           03                              99                    MURUA MAURICIO EDUARDO        96            2259741900000000000
196            23794366NAVARRO FAVIO GERMAN          ALONZO DE ERCILLA               4780                         5000    CORDOBA                       CAPITAL                                           03                              99                    NAVARRO FAVIO GERMAN          96            2379436600000000000
196            18172948NEBRO JUAN CARLOS             FRANCISCO SABBATINI             6982                         5000    CORDOBA                       CAPITAL                                           03                              99                    NEBRO JUAN CARLOS             96            1817294800000000000
196            20621865NIRICH ADRIAN JOSE            JOSE HERNANDEZ                   483                         5000    CORDOBA                       CAPITAL                                           03                              99                    NIRICH ADRIAN JOSE            96            2062186500000000000
196            17158000OLIVARI ARMANDO FRANCISCO     DAMIAN GARAT                    3161                         5000    CORDOBA                       CAPITAL                                           03                              99                    OLIVARI ARMANDO FRANCISCO     96            1715800000000000000
196            16292993PALACIOS ROBERTO LEOPOLDO     RECTA MARTINOLI                 7163                         5000    CORDOBA                       CAPITAL                                           03                              99                    PALACIOS ROBERTO LEOPOLDO     96            1629299300000000000
296            21627019PEREYRA SILVANA ESTER         CARLOS CONCI                     355                         5000    CORDOBA                       CAPITAL                                           03PEREYRA SILVANA ESTER         96            21627019                              99                    00000000000
196            25343771PERLATI SEBASTIAN FERNANDO    URQUIZA                         1397                         5000    CORDOBA                       CAPITAL                                           03                              99                    PERLATI SEBASTIAN FERNANDO    96            2534377100000000000
196            25185098PHILIPEAUX EDMUNDO WALTER     FERROVIARIOS                    1332                         5000    CORDOBA                       CAPITAL                                           03                              99                    PHILIPEAUX EDMUNDO WALTER     96            2518509800000000000
196            14892313PICCA FERNANDO HUGO           LAS PLAYAS                      2075                         5000    CORDOBA                       CAPITAL                                           03                              99                    PICCA FERNANDO HUGO           96            1489231300000000000
196            22104160QUAINO LISANDRO ANDRES        LUIS MARIA DRAGO                 125                         5000    CORDOBA                       CAPITAL                                           03                              99                    QUAINO LISANDRO ANDRES        96            2210416000000000000
196            21397447RAMIREZ LUIS ALBERTO          JOAQUIN MONTANA                 1031                         5000    CORDOBA                       CAPITAL                                           03                              99                    RAMIREZ LUIS ALBERTO          96            2139744700000000000
196            14907059RAMOS JOSE LUIS               FRANCISCO VALLES                4261                         5000    CORDOBA                       CAPITAL                                           03                              99                    RAMOS JOSE LUIS               96            1490705900000000000
196            25080641REGIS PEDRO MIGUEL            ROMULO BAGLIOLO                 2565                         5000    CORDOBA                       CAPITAL                                           03                              99                    REGIS PEDRO MIGUEL            96            2508064100000000000
196            23358357RITACCA DANIEL FRANCISCO      TRISTAN MALBRAN                 4150                         5000    CORDOBA                       CAPITAL                                           03                              99                    RITACCA DANIEL FRANCISCO      96            2335835700000000000
196            22566924RIVADERO ESTEBAN ARIEL        FEDERICO RAUCH                  2147                         5000    CORDOBA                       CAPITAL                                           03                              99                    RIVADERO ESTEBAN ARIEL        96            2256692400000000000
196            17728608ROMERA JOSE ALBERTO           BAUDILLO VAZQUEZ                3743                         5000    CORDOBA                       CAPITAL                                           03                              99                    ROMERA JOSE ALBERTO           96            1772860800000000000
196            16740075ROMERO JORGE OSCAR            LOS SOLES                        S/N                         5000    CORDOBA                       CAPITAL                                           03                              99                    ROMERO JORGE OSCAR            96            1674007500000000000
196            17001366SALGUERO HECTOR OSVALDO       MENDOZA                          237                         5000    CORDOBA                       CAPITAL                                           03                              99                    SALGUERO HECTOR OSVALDO       96            1700136600000000000
196            11945073SALINAS VALENTIN              SAUCE                             55                         5000    CORDOBA                       CAPITAL                                           03                              99                    SALINAS VALENTIN              96            1194507300000000000
196            18385481SANCHEZ DARIO                 ALVARES DE LAS CASAS             529                         5000    CORDOBA                       CAPITAL                                           03                              99                    SANCHEZ DARIO                 96            1838548100000000000
196            20542112SANCHEZ MARCELO MATIAS        SANTA FE                        2868                         5000    CORDOBA                       CAPITAL                                           03                              99                    SANCHEZ MARCELO MATIAS        96            2054211200000000000
196            23467666SAVINO LUIS IGNACIO           CARLOS GAUSS                    4918                         5000    CORDOBA                       CAPITAL                                           03                              99                    SAVINO LUIS IGNACIO           96            2346766600000000000
196            24102755SENTANA DIEGO MARIO           AV. SABBATINI                    167                         5000    CORDOBA                       CAPITAL                                           03                              99                    SENTANA DIEGO MARIO           96            2410275500000000000
196            16094572SOLIS WALTER EDUARDO          JUAN VALLE PLANES               2687                         5000    CORDOBA                       CAPITAL                                           03                              99                    SOLIS WALTER EDUARDO          96            1609457200000000000
196            22567813VARGAS RICARDO FERNANDO       JUAN BAUTISTA GHERRA            7170                         5000    CORDOBA                       CAPITAL                                           03                              99                    VARGAS RICARDO FERNANDO       96            2256781300000000000
196            14990436VEGA LUIS ALBERTO             POETA LUGONES                    S/N                         5000    CORDOBA                       CAPITAL                                           03                              99                    VEGA LUIS ALBERTO             96            1499043600000000000
196            12763889VIVA JUAN CARLOS              CHUBUT                           780                         5000    CORDOBA                       CAPITAL                                           03                              99                    VIVA JUAN CARLOS              96            1276388900000000000
196            18175773VOLPINI MARCELO RENATO        OSTENDE                          443                         5000    CORDOBA                       CAPITAL                                           03                              99                    VOLPINI MARCELO RENATO        96            1817577300000000000
196            21627832ADAN MARCELO JOSE             PALPA                           5554                         5000    CORDOBA                       CAPITAL                                           03                              99                    ADAN MARCELO JOSE             96            2162783200000000000
196            20477266AHUALLI ALEJANDRO OSCAR       AVELLANEDA                      2071                         5000    CORDOBA                       CAPITAL                                           03                              99                    AHUALLI ALEJANDRO OSCAR       96            2047726600000000000
196            17011528ALVAREZ CARLOS ALBERTO        14 DE JULIO                      174                         5000    CORDOBA                       CAPITAL                                           03                              99                    ALVAREZ CARLOS ALBERTO        96            1701152800000000000
196            11418006APPOLLONI JOSE LUIS           LA RIOJA                         826                         5000    CORDOBA                       CAPITAL                                           03                              99                    APPOLLONI JOSE LUIS           96            1141800600000000000
196            26880599ARAYA ULLOA LUCIANA MARICEL   CALLE 4                          792                         5000    CORDOBA                       CAPITAL                                           03                              99                    ARAYA ULLOA LUCIANA MARICEL   96            2688059900000000000
196            13821034ARIAS JORGE EDUARDO           SOLDADO RUIZ                    1080                         5000    CORDOBA                       CAPITAL                                           03                              99                    ARIAS JORGE EDUARDO           96            1382103400000000000
196            16179730BALDASO RAUL ALBERTO          RECONQUISTA                     3542                         5000    CORDOBA                       CAPITAL                                           03                              99                    BALDASO RAUL ALBERTO          96            1617973000000000000
196            16904318BARRERA WALTER                TUPAC YUPANQUI                  3789                         5000    CORDOBA                       CAPITAL                                           03                              99                    BARRERA WALTER                96            1690431800000000000
196            21394357BATTAGLIA MARCELO FABIAN      LOS PINOS                       3394                         5000    CORDOBA                       CAPITAL                                           03                              99                    BATTAGLIA MARCELO FABIAN      96            2139435700000000000
196            14702287BAZAN MARCELO DANIEL          ESMERALDA                       4132                         5000    CORDOBA                       CAPITAL                                           03                              99                    BAZAN MARCELO DANIEL          96            1470228700000000000
196            18256450BEJARANO CALPANCHAY JAVIER G. RODRIGUEZ PENA                  3195                         5000    CORDOBA                       CAPITAL                                           03                              99                    BEJARANO CALPANCHAY JAVIER G. 96            1825645000000000000
196            18102272BERNAL SANTIAGO DANIEL        SANTA FE                         123                         5000    CORDOBA                       CAPITAL                                           03                              99                    BERNAL SANTIAGO DANIEL        96            1810227200000000000
196            14799095BINDI MAURICIO HECTOR         LOS GRANADEROS                  3311                         5000    CORDOBA                       CAPITAL                                           03                              99                    BINDI MAURICIO HECTOR         96            1479909500000000000
196            23825409BOLDINI DIEGO MATIAS          VARCLA ORTIZ                    3044                         5000    CORDOBA                       CAPITAL                                           03                              99                    BOLDINI DIEGO MATIAS          96            2382540900000000000
196            14607315BOLLATI GILBERTO JUAN         GRAL. PAZ                       1216                         5000    CORDOBA                       CAPITAL                                           03                              99                    BOLLATI GILBERTO JUAN         96            1460731500000000000
196            20381418BORIONI NESTOR FABIAN         ANAENUSA                        2845                         5000    CORDOBA                       CAPITAL                                           03                              99                    BORIONI NESTOR FABIAN         96            2038141800000000000
196            20381418BORIONI NESTOR FABIAN         ANSENUSA                        2845                         5000    CORDOBA                       CAPITAL                                           03                              99                    BORIONI NESTOR FABIAN         96            2038141800000000000
196            11716607BOSSIO OSCAR ANGEL            LASCANO COLODRERO               2878                         5000    CORDOBA                       CAPITAL                                           03                              99                    BOSSIO OSCAR ANGEL            96            1171660700000000000
196            21755990BRAVO JUAN CARLOS             PAULINO CENTENO                 3582                         5000    CORDOBA                       CAPITAL                                           03                              99                    BRAVO JUAN CARLOS             96            2175599000000000000
196            22566944BURGOS ALFREDO EDWIN          M10 L25 IPV                      227                         5000    CORDOBA                       CAPITAL                                           03                              99                    BURGOS ALFREDO EDWIN          96            2256694400000000000
196            17625903BUSTOS SERGIO MIGUEL RAMON    MATHEU                          3560                         5000    CORDOBA                       CAPITAL                                           03                              99                    BUSTOS SERGIO MIGUEL RAMON    96            1762590300000000000
196            17629380BUZZONI ERNESTO DANIEL        CORRO                          10399                         5000    CORDOBA                       CAPITAL                                           03                              99                    BUZZONI ERNESTO DANIEL        96            1762938000000000000
196            16283176CANO MARIA BELEN              VELEZ SARFIELD                    84                         5000    CORDOBA                       CAPITAL                                           03                              99                    CANO MARIA BELEN              96            1628317600000000000
196            20439093CARBALLO JORGE ARIEL          CLEVELAND                       6087                         5000    CORDOBA                       CAPITAL                                           03                              99                    CARBALLO JORGE ARIEL          96            2043909300000000000
196            24120084CARDONE MATIAS                AVELLANEDA                      1360                         5000    CORDOBA                       CAPITAL                                           03                              99                    CARDONE MATIAS                96            2412008400000000000
196            11635416CARNEIRO LAMAS GUILLERMO CESARMANUEL CORVALAN                   59                         5000    CORDOBA                       CAPITAL                                           03                              99                    CARNEIRO LAMAS GUILLERMO CESAR96            1163541600000000000
196            21393315CARRION JAVIER                ALBERTO MACIAS                   109                         5000    CORDOBA                       CAPITAL                                           03                              99                    CARRION JAVIER                96            2139331500000000000
196            16410209CARRIZO SANTIAGO DANIEL       EUGENIO GALLI                    322                         5000    CORDOBA                       CAPITAL                                           03                              99                    CARRIZO SANTIAGO DANIEL       96            1641020900000000000
196            24841703CERVELLERA VAGNI HEBER ARIEL  ALEJANDRO AGUADO                 626                         5000    CORDOBA                       CAPITAL                                           03                              99                    CERVELLERA VAGNI HEBER ARIEL  96            2484170300000000000
196            23440130COOPER GERMAN LUIS            JUAN JOSE PASO                   146                         5000    CORDOBA                       CAPITAL                                           03                              99                    COOPER GERMAN LUIS            96            2344013000000000000
196            16162463CORVALAN JUAN ORLANDO         CORRIENTES                       466                         5000    CORDOBA                       CAPITAL                                           03                              99                    CORVALAN JUAN ORLANDO         96            1616246300000000000
196            17842507COZZI CLAUDIO PAULINO         RAMOS MEJIA                     1946                         5000    CORDOBA                       CAPITAL                                           03                              99                    COZZI CLAUDIO PAULINO         96            1784250700000000000
196            93251034DE LOS RIOS LANDIVAR LILIAN   EDUARDO SAN MARTIN              1363                         5000    CORDOBA                       CAPITAL                                           03                              99                    DE LOS RIOS LANDIVAR LILIAN   96            9325103400000000000
196            18567498DEPETRIS CARLOS ALBERTO       CASTANARES                      2715                         5000    CORDOBA                       CAPITAL                                           03                              99                    DEPETRIS CARLOS ALBERTO       96            1856749800000000000
196            22561308DIAS PABLO MARTIN             SCHMEIDER                       3921                         5000    CORDOBA                       CAPITAL                                           03                              99                    DIAS PABLO MARTIN             96            2256130800000000000
196            20184612DIAS ASTUDILLO CARLOS ENRRIQUEGRANADA                          526                         5000    CORDOBA                       CAPITAL                                           03                              99                    DIAS ASTUDILLO CARLOS ENRRIQUE96            2018461200000000000
196            14474662DUBOSMARCELO CARLOS           NEUQUEN                         1184                         5000    CORDOBA                       CAPITAL                                           03                              99                    DUBOSMARCELO CARLOS           96            1447466200000000000
196            17384574FERNANDEZ FLAVIO OSBALDO      TALMA                           1969                         5000    CORDOBA                       CAPITAL                                           03                              99                    FERNANDEZ FLAVIO OSBALDO      96            1738457400000000000
196            14408554FIERRO EDUARDO                AV VALPARAISO                   4339                         5000    CORDOBA                       CAPITAL                                           03                              99                    FIERRO EDUARDO                96            1440855400000000000
196            17053717FIORIO GUSTAVO ALBERTO        URIBURU                          369                         5000    CORDOBA                       CAPITAL                                           03                              99                    FIORIO GUSTAVO ALBERTO        96            1705371700000000000
196            22371233FRADEJA RAFAEL ALEJANDRO      JOSE J DIAZ                      197                         5000    CORDOBA                       CAPITAL                                           03                              99                    FRADEJA RAFAEL ALEJANDRO      96            2237123300000000000
196            14641604HECTOR JORGE GACHE            DONATO ALVAREZ                  7352                         5000    CORDOBA                       CAPITAL                                           03                              99                    HECTOR JORGE GACHE            96            1464160400000000000
196            20149376GARCIA ABELARDO ALFREDO       JULIO A ROCA                     140                         5000    CORDOBA                       CAPITAL                                           03                              99                    GARCIA ABELARDO ALFREDO       96            2014937600000000000
196            16363198GIAIMIS ALBERTO HUGO          OBISPO ORO                       353                         5000    CORDOBA                       CAPITAL                                           03                              99                    GIAIMIS ALBERTO HUGO          96            1636319800000000000
196            16748961GIORDANO ALEJANDRO BRUNO      LOS PLATANOS                     905                         5000    CORDOBA                       CAPITAL                                           03                              99                    GIORDANO ALEJANDRO BRUNO      96            1674896100000000000
196            17001690GROSSS CARLOS GUSTAVO         MARTIN FIERRO                   4180                         5000    CORDOBA                       CAPITAL                                           03                              99                    GROSSS CARLOS GUSTAVO         96            1700169000000000000
196            24629511GRUMELLI IGNACIO MIGUEL       IGARZABAL                       1884                         5000    CORDOBA                       CAPITAL                                           03                              99                    GRUMELLI IGNACIO MIGUEL       96            2462951100000000000
196            18635763GUERRA DANTE RODOLFO          MARIO BRANDI                    4105                         5000    CORDOBA                       CAPITAL                                           03                              99                    GUERRA DANTE RODOLFO          96            1863576300000000000
196            23440304HADAD EDGAR DARIO             DON BOSCO                       4807                         5000    CORDOBA                       CAPITAL                                           03                              99                    HADAD EDGAR DARIO             96            2344030400000000000
196            17627815JULAR CARLOS DAMIAN           A CAZARRETA                     2532                         5000    CORDOBA                       CAPITAL                                           03                              99                    JULAR CARLOS DAMIAN           96            1762781500000000000
196            16837332KAISER CARLOS CRISTIAN DAMIAN PRINGLES                         955                         5000    CORDOBA                       CAPITAL                                           03                              99                    KAISER CARLOS CRISTIAN DAMIAN 96            1683733200000000000
196            24615244KANTOR LIONEL                 JOSE MARIA BAILON                 16                         5000    CORDOBA                       CAPITAL                                           03                              99                    KANTOR LIONEL                 96            2461524400000000000
196            42258039KLOR MARCELO ELIAS            PEREZ DE HERRERA                1979                         5000    CORDOBA                       CAPITAL                                           03                              99                    KLOR MARCELO ELIAS            96            4225803900000000000
196            20586168LASA FERNANDO JAVIER          MENENDEZ PIDAL                  3863                         5000    CORDOBA                       CAPITAL                                           03                              99                    LASA FERNANDO JAVIER          96            2058616800000000000
196            22796369LESCANO MARTIN ADRIAN         LA CORONA AUSTRAL               3810                         5000    CORDOBA                       CAPITAL                                           03                              99                    LESCANO MARTIN ADRIAN         96            2279636900000000000
196            23763313LOPEZ JAVIER ANTONIO          EMILIO BERISSO                  2737                         5000    CORDOBA                       CAPITAL                                           03                              99                    LOPEZ JAVIER ANTONIO          96            2376331300000000000
196            20439732LOZA JORJE LUIS               PEDRO CHENOT                     290                         5000    CORDOBA                       CAPITAL                                           03                              99                    LOZA JORJE LUIS               96            2043973200000000000
196            22564253LUNA MAURICIO JOSE            27 DE ABRIL                     1779                         5000    CORDOBA                       CAPITAL                                           03                              99                    LUNA MAURICIO JOSE            96            2256425300000000000
196            18168067LUNA ROBERTO DANIEL           JOSE M PIZARRO                   752                         5000    CORDOBA                       CAPITAL                                           03                              99                    LUNA ROBERTO DANIEL           96            1816806700000000000
196            17843681MAMMANA RAUL JOSE             COCHABAMBA                      3635                         5000    CORDOBA                       CAPITAL                                           03                              99                    MAMMANA RAUL JOSE             96            1784368100000000000
196            24370882MAMONDEZ GUSTAVO ENRIQUE      RANCAGUA                        2997                         5000    CORDOBA                       CAPITAL                                           03                              99                    MAMONDEZ GUSTAVO ENRIQUE      96            2437088200000000000
196            24597672MANSILLA MARCO SEBASTIAN      BERNARDINO MENESES              2248                         5000    CORDOBA                       CAPITAL                                           03                              99                    MANSILLA MARCO SEBASTIAN      96            2459767200000000000
196            23461038MANSILLA INGARAMO MIGUEL ANGELDUCASSE                          962                         5000    CORDOBA                       CAPITAL                                           03                              99                    MANSILLA INGARAMO MIGUEL ANGEL96            2346103800000000000
196            24385611MANSILLA LOPEZ LEONARDO ARIEL JOSE ORZALIS                    7039                         5000    CORDOBA                       CAPITAL                                           03                              99                    MANSILLA LOPEZ LEONARDO ARIEL 96            2438561100000000000
196            18252371MARTINEZ FABIAN JOSE          JUAN OCA BALDA                   751                         5000    CORDOBA                       CAPITAL                                           03                              99                    MARTINEZ FABIAN JOSE          96            1825237100000000000
196            17385775MARTINEZ DANIEL GUSTAVO       LAS PLAYAS                      1483                         5000    CORDOBA                       CAPITAL                                           03                              99                    MARTINEZ DANIEL GUSTAVO       96            1738577500000000000
196            16013598MASTROIACOVO ALFONSO ALFREDO  JOSE DE QUEVEDO                 2277                         5000    CORDOBA                       CAPITAL                                           03                              99                    MASTROIACOVO ALFONSO ALFREDO  96            1601359800000000000
196            16501066MENDEZ MARCELO DANIEL         TERCILIO GAMBINO                 139                         5000    CORDOBA                       CAPITAL                                           03                              99                    MENDEZ MARCELO DANIEL         96            1650106600000000000
196            20542878MERAVIGLIA MARCELO            NAZCA                            831                         5000    CORDOBA                       CAPITAL                                           03                              99                    MERAVIGLIA MARCELO            96            2054287800000000000
196            18354582MICHELI FERNANDO MARCELO      TUCUMAN                         1172                         5000    CORDOBA                       CAPITAL                                           03                              99                    MICHELI FERNANDO MARCELO      96            1835458200000000000
196            21452416MIRANDA DIEGO JAVIER          RUTA E                            55                         5000    CORDOBA                       CAPITAL                                           03                              99                    MIRANDA DIEGO JAVIER          96            2145241600000000000
196            21452416MIRANDA DIEGO JAVIER          REMEDIOS ESCALADA DE SM         1766                         5000    CORDOBA                       CAPITAL                                           03                              99                    MIRANDA DIEGO JAVIER          96            2145241600000000000
196            22034334MONDINO ARIEL RICARDO         EDISON                          4350                         5000    CORDOBA                       CAPITAL                                           03                              99                    MONDINO ARIEL RICARDO         96            2203433400000000000
196            18014833MONTANE VICTOR MARTIN         LA CORDILLERA                   4791                         5000    CORDOBA                       CAPITAL                                           03                              99                    MONTANE VICTOR MARTIN         96            1801483300000000000
196            11558739TRISTAN SONZINI TOMAS ALBERTO INAUDI                           269                         5000    CORDOBA                       CAPITAL                                           03                              99                    TRISTAN SONZINI TOMAS ALBERTO 96            1155873900000000000
196            12365581PACHECO ERNESTO GASTON        GREGORIO VELEZ                  3558                         5000    CORDOBA                       CAPITAL                                           03                              99                    PACHECO ERNESTO GASTON        96            1236558100000000000
196            27197790PALACIOS MATIAS ANGEL         TARIJA                           943                         5000    CORDOBA                       CAPITAL                                           03                              99                    PALACIOS MATIAS ANGEL         96            2719779000000000000
196            17706616PARINO MARCELO AUGUSTO        RIVADAVIA                        112                         5000    CORDOBA                       CAPITAL                                           03                              99                    PARINO MARCELO AUGUSTO        96            1770661600000000000
196            92156698PAYEN JACQUES CLAUDE CLEMENT  LA RIOJA                        2655                         5000    CORDOBA                       CAPITAL                                           03                              99                    PAYEN JACQUES CLAUDE CLEMENT  96            9215669800000000000
196            18329142PERALTA RODRIGO RODOLFO       VERA Y ZARATE                   3213                         5000    CORDOBA                       CAPITAL                                           03                              99                    PERALTA RODRIGO RODOLFO       96            1832914200000000000
196            16158619PINELLE RICARDO ENRIQUE       PERU                             259                         5000    CORDOBA                       CAPITAL                                           03                              99                    PINELLE RICARDO ENRIQUE       96            1615861900000000000
196            22224652PINKEVICIUS MARCOS ARIEL      HUMBERTO 1                      1936                         5000    CORDOBA                       CAPITAL                                           03                              99                    PINKEVICIUS MARCOS ARIEL      96            2222465200000000000
196            18016644PITHART MAURICIO ALBERTO      DE LA ESTACION                  1249                         5000    CORDOBA                       CAPITAL                                           03                              99                    PITHART MAURICIO ALBERTO      96            1801664400000000000
196            21422906PREVIGLIANO GUSTAVO ALEJADRO  RECTA MARTINOLI                 8957                         5000    CORDOBA                       CAPITAL                                           03                              99                    PREVIGLIANO GUSTAVO ALEJADRO  96            2142290600000000000
196            14839840PUGLIESE PASCUAL RAUL         D. BOSCO                        6010                         5000    CORDOBA                       CAPITAL                                           03                              99                    PUGLIESE PASCUAL RAUL         96            1483984000000000000
196            28412826QUINTERO GABINO DAVID         DIEGO DIAS                       575                         5000    CORDOBA                       CAPITAL                                           03                              99                    QUINTERO GABINO DAVID         96            2841282600000000000
196            11866832QUITEROS VEMARCIO             ALFONSO DURAND                   671                         5000    CORDOBA                       CAPITAL                                           03                              99                    QUITEROS VEMARCIO             96            1186683200000000000
196            18465610RAMOS FERNABDO GUSTAVO        ENTRE RIOS                      1915                         5000    CORDOBA                       CAPITAL                                           03                              99                    RAMOS FERNABDO GUSTAVO        96            1846561000000000000
196            14292813RAMOS PABLO HERNAN            LIBERTAD                         839                         5000    CORDOBA                       CAPITAL                                           03                              99                    RAMOS PABLO HERNAN            96            1429281300000000000
196            22564989REX PABLO ENRIQUE             N. BERROTARAN                   1578                         5000    CORDOBA                       CAPITAL                                           03                              99                    REX PABLO ENRIQUE             96            2256498900000000000
196            22560810RIZZETTI JORGE RAFAEL         ARENALES                         317                         5000    CORDOBA                       CAPITAL                                           03                              99                    RIZZETTI JORGE RAFAEL         96            2256081000000000000
196            21719124RODRIGUEZ CARRANZA HERNAN     COLON                           1330                         5000    CORDOBA                       CAPITAL                                           03                              99                    RODRIGUEZ CARRANZA HERNAN     96            2171912400000000000
196            23196388ROLDAN ADRIAN ESTEBAN         RIVERA INDARTE                   731                         5000    CORDOBA                       CAPITAL                                           03                              99                    ROLDAN ADRIAN ESTEBAN         96            2319638800000000000
196            21841319ROSPIDE SANTIAGO MIGUEL       B MILITAR PQUE SARMIENTO          11                         5000    CORDOBA                       CAPITAL                                           03                              99                    ROSPIDE SANTIAGO MIGUEL       96            2184131900000000000
196            17207909ROSSA MARCELO VICENTE         EMILIO OLMOS                       6                         5000    CORDOBA                       CAPITAL                                           03                              99                    ROSSA MARCELO VICENTE         96            1720790900000000000
196            24864837SAIRES NESTOR EDUARDO         R. DE ESCALADA                   168                         5000    CORDOBA                       CAPITAL                                           03                              99                    SAIRES NESTOR EDUARDO         96            2486483700000000000
196            27188957SALAS HARMAN TOMAS MARIANO    ITUZAINGO                        317                         5000    CORDOBA                       CAPITAL                                           03                              99                    SALAS HARMAN TOMAS MARIANO    96            2718895700000000000
196            16372994SALAS ANTONIO JORGE           ALFONSINA STORNI                3218                         5000    CORDOBA                       CAPITAL                                           03                              99                    SALAS ANTONIO JORGE           96            1637299400000000000
196            16904508SALVA CARLOS ENRIQUE          RIO BAMBA                        262                         5000    CORDOBA                       CAPITAL                                           03                              99                    SALVA CARLOS ENRIQUE          96            1690450800000000000
196            16740909SAPUPPO DANIEL SALVADOR       ASTURIAS                        4023                         5000    CORDOBA                       CAPITAL                                           03                              99                    SAPUPPO DANIEL SALVADOR       96            1674090900000000000
196            17385947SAVID JUAN JOSE               ANTONIO MACHONI                 1750                         5000    CORDOBA                       CAPITAL                                           03                              99                    SAVID JUAN JOSE               96            1738594700000000000
196            22221743SEMINARO ROBERTO CARLOS       LOS TARTAGOS                     780                         5000    CORDOBA                       CAPITAL                                           03                              99                    SEMINARO ROBERTO CARLOS       96            2222174300000000000
196            14892285SENESTRARI RAFAEL FRANCISCO   JUAN SARACHO                    5080                         5000    CORDOBA                       CAPITAL                                           03                              99                    SENESTRARI RAFAEL FRANCISCO   96            1489228500000000000
196            16292217SOLANA GABRIEL HECTOR         CURAQUEN                        6053                         5000    CORDOBA                       CAPITAL                                           03                              99                    SOLANA GABRIEL HECTOR         96            1629221700000000000
196            13374156SORIANO GUILLERMO LUIS        VIRACOCHA                       7511                         5000    CORDOBA                       CAPITAL                                           03                              99                    SORIANO GUILLERMO LUIS        96            1337415600000000000
196            92861725SOSA SOLIS LUIS RODRIGO       TEJEDA                           108                         5000    CORDOBA                       CAPITAL                                           03                              99                    SOSA SOLIS LUIS RODRIGO       96            9286172500000000000
